:100000000C9471000C9499000C9499000C94990034
:100010000C9499000C9499000C9499000C949900FC
:100020000C9499000C9499000C9499000C94D904A8
:100030000C9499000C9449050C9423050C94990098
:100040000C9499000C9499000C9499000C949900CC
:100050000C94990000003A00370034003100000091
:10006000000000003B0038003500320000000000B6
:1000700000003900360033003000000000000202AA
:10008000020202020202040404040404040403033E
:100090000303030303030101010101010101010243
:1000A0000408102040800102040810204080010252
:1000B0000408102040808040201008040201000045
:1000C0000001000000000000000004030005000023
:1000D00000000000000000000000000000007B05A0
:1000E000DE0611241FBECFE5D8E0DEBFCDBF11E094
:1000F000A0E6B0E0E2E0F1E102C005900D92AC3084
:10010000B107D9F721E0ACE0B1E001C01D92A13FF9
:10011000B207E1F710E0C0E7D0E004C02197FE018C
:100120000E944107CF36D107C9F70E9460060C94A0
:1001300074080C940000843039F0853049F0833025
:1001400051F48FB58F7702C08FB58F7D8FBD089525
:1001500085B58F7D85BD0895CF92DF92EF92FF9296
:100160000F931F93CF93DF936C017A018B01C0E053
:10017000D0E0CE15DF0581F0D8016D918D01D6015B
:10018000ED91FC910190F081E02DC6010995892B3C
:1001900011F02196EECF7E01C701DF91CF911F9123
:1001A0000F91FF90EF90DF90CF90089580E090E066
:1001B0000895FC01538D448D252F30E0842F90E06D
:1001C000821B930B541710F0CF9608950197089552
:1001D000FC01918D828D981761F0828DDF01A80F4F
:1001E000B11D5D968C91928D9F5F9F73928F90E071
:1001F00008958FEF9FEF0895FC01918D828D9817E0
:1002000031F0828DE80FF11D858D90E008958FEF1C
:100210009FEF0895FC01918D228D892F90E0805CE5
:100220009F4F821B91098F739927089587E191E071
:100230000E940A0121E0892B09F420E0822F089511
:10024000FC01848DDF01A80FB11DA35ABF4F2C9173
:10025000848D90E001968F739927848FA689B78942
:100260002C93A089B1898C9182748C93938D848D09
:10027000981306C00288F389E02D80818F7D8083EA
:100280000895EF92FF920F931F93CF93DF93EC01AA
:1002900081E0888F9B8D8C8D981305C0E889F98942
:1002A000808185FD26C0F62E0B8D10E00F5F1F4F5D
:1002B0000F731127E02E8C8DE8120CC00FB607FCCF
:1002C000FACFE889F989808185FFF5CFCE010E94B8
:1002D0002001F1CF8B8DFE01E80FF11DE35AFF4F96
:1002E000F0829FB7F8940B8FEA89FB898081806246
:1002F00009C09FB7F894EE89FF896083E889F9897E
:100300008081827480839FBF81E090E0DF91CF91F4
:100310001F910F91FF90EF900895CF93DF93EC0121
:10032000888D8823C9F0EA89FB89808185FD05C015
:10033000A889B9898C9186FD0FC00FB607FCF5CF4F
:10034000808185FFF2CFA889B9898C9185FFEDCF97
:10035000CE010E942001E7CFDF91CF91089580E088
:1003600090E0892B29F00E94160181110C94000065
:10037000089580E0089508950895CF92DF92EF9256
:10038000FF92CF93DF93FC01C680D780E084F18495
:10039000C481D581E889F98982E08083C114F1EEB6
:1003A000DF06E104F104B1F060E079E08DE390E074
:1003B000A70196010E941F07DA01C9010197A1094F
:1003C000B109B695A795979587959C01211580E170
:1003D0003807A8F0E889F989108260E874E88EE1AE
:1003E00090E0A70196010E941F07DA01C901019759
:1003F000A109B109B695A795979587959C01EC85BC
:10040000FD853083EE85FF852083188EEC89FD897C
:1004100086E88083EA89FB89808180618083EA891C
:10042000FB89808188608083EA89FB89808180687C
:100430008083EA89FB8980818F7D8083DF91CF91E2
:10044000FF90EF90DF90CF9008951F93CF93DF93AD
:10045000EC01122F8A819B81642BDC01ED91FC91D0
:100460000190F081E02D09958A819B81DC01ED915D
:10047000FC910190F081E02D612F09958A819B818B
:10048000DC01ED91FC910680F781E02DDF91CF91A9
:100490001F9109940F931F93CF93DF93EC01122FB9
:1004A0008A819B81642BDC01ED91FC910190F081AC
:1004B000E02D09958A819B81DC01ED91FC910190F1
:1004C000F081E02D612F09958A819B81DC01ED91FE
:1004D000FC910190F081E02D602F09958A819B812C
:1004E000DC01ED91FC910680F781E02DDF91CF9149
:1004F0001F910F910994CF93DF93EC018A819B8127
:10050000DC01ED91FC910084F185E02D0995181630
:1005100019065CF48A819B81DC01ED91FC910284D7
:10052000F385E02D099581E001C080E0DF91CF9156
:100530000895089580E090E00895CF93DF93C82F49
:10054000883210F5682F70E0FB01E254FF4F849170
:10055000FB01E256FF4FD491FB01E258FF4FC491DB
:10056000CC2321F181110E949B00EC2FF0E0EE0FD3
:10057000FF1FE059FF4FA591B491EC91ED2381E06D
:1005800090E0B1F480E014C00E949A02009771F0EC
:10059000DC0113962C9113976C2F621BED91FC914B
:1005A0000480F581E02DDF91CF91099480E090E007
:1005B000DF91CF9108951F93CF93DF93C82F162F0C
:1005C000883240F5682F70E0FB01E254FF4F8491C0
:1005D000FB01E256FF4FD491FB01E258FF4FC4915B
:1005E000CC2361F181110E949B00EC2FF0E0EE0F13
:1005F000FF1FEE59FF4FA591B4919FB7F8941111C9
:1006000004C08C91D095D82302C0EC91DE2BDC93F2
:100610009FBF14C00E949A02009781F0DC011396DC
:100620002C9113976C2F621BED91FC910280F3814A
:10063000E02D412FDF91CF911F910994DF91CF9150
:100640001F910895CF93DF93883208F039C090E06E
:10065000FC01E256FF4F2491FC01E258FF4F8491C8
:10066000882309F442C090E0880F991FFC01EC5ADE
:10067000FF4FC591D491FC01EE59FF4FA591B49164
:10068000611109C09FB7F8948881209582238883DF
:10069000EC912E230BC0623061F49FB7F8948881EF
:1006A000322F309583238883EC912E2B2C939FBF80
:1006B0001CC08FB7F894E8812E2B28838FBF15C0FC
:1006C000D62FC82F0E949A02009779F0DC0113966A
:1006D0002C9113976C2F621BED91FC910190F0818E
:1006E000E02D4D2FDF91CF910994DF91CF910895A7
:1006F0000F931F93CF93DF93EC018B01FB0180815C
:100700000E949D0221E0892B09F420E0F8018181FB
:10071000F22FF81BFF3F69F53FB7F8948091130162
:1007200090911401A0911501B09116013FBF4E8523
:100730005F8568897989841B950BA60BB70B4E8959
:100740005F89688D798D481759076A077B0710F50F
:100750003FB7F8948091130190911401A091150175
:10076000B09116013FBF8E879F87A88BB98B81E020
:1007700012C0F13079F43FB7F89480911301909151
:100780001401A0911501B09116013FBF8E879F877C
:10079000A88BB98B80E0F8012183DF91CF911F9165
:1007A0000F9108952F923F924F925F926F927F9296
:1007B0008F929F92AF92BF92CF92DF92EF92FF9271
:1007C0000F931F93CF93DF9300D000D000D0CDB70D
:1007D000DEB72FB7F8944091130150911401609146
:1007E0001501709116012FBFDC0119960D911D9115
:1007F0002D913C911C976A017B01C01AD10AE20A33
:10080000F30A97018601043111052105310508F429
:10081000B4C09E838D8319964D935D936D937C93A5
:100820001C975C01BFE0AB0EB11CC12CD12CBA826D
:10083000A98261E0F50180810E9422032D803E8023
:10084000FBE12F0E311C1C2D812C912C760123E015
:10085000EE0CFF1C2A95E1F7FC82EB82D1018D9111
:100860001D010E949D023C01E12EF12C83E0F594D4
:10087000E7948A95E1F7812F877044244394512CA3
:1008800002C0440C551C8A95E2F721E06114710402
:1008900009F420E0AD81BE811D96ED91FC911E977B
:1008A000EE0DFF1D8081842191E009F490E029176D
:1008B00009F449C0ED81FE8106A1848103A0F4A161
:1008C000E02D2B813C81E20FF31FE80DF91DAD8176
:1008D000BE8113969C9113972081899F200D11242E
:1008E00012964C911297849F302D112495964C911D
:1008F00041506114710411F460E901C060E8E091B5
:10090000C001F091C10182819381430F0F772F774E
:100910004F70607FDC01ED91FC910480F581E02D4A
:100920000995AD81BE811D96ED91FC911E97EE0D4E
:10093000FF1D672819F08081482A04C04094509414
:10094000808148224082BFEF8B1A9B0A145FE8E047
:100950008E16910409F082CFFFEFAF1ABF0A60E054
:10096000A981BA818C910E942203BFEFCB1ADB0AC6
:10097000ECE0CE16D10409F05ACF26960FB6F894C3
:10098000DEBF0FBECDBFDF91CF911F910F91FF90C2
:10099000EF90DF90CF90BF90AF909F908F907F901F
:1009A0006F905F904F903F902F90089508950E9410
:1009B00068081F920F920FB60F9211242F933F9346
:1009C0008F939F93AF93BF938091130190911401E4
:1009D000A0911501B09116013091120123E0230F6F
:1009E0002D3720F40196A11DB11D05C026E8230F67
:1009F0000296A11DB11D20931201809313019093C3
:100A00001401A0931501B093160180910E019091ED
:100A10000F01A0911001B09111010196A11DB11D0E
:100A200080930E0190930F01A0931001B0931101D8
:100A3000BF91AF919F918F913F912F910F900FBEDA
:100A40000F901F9018951F920F920FB60F921124BE
:100A50002F933F934F935F936F937F938F939F93C6
:100A6000AF93BF93EF93FF9387E191E00E94200142
:100A7000FF91EF91BF91AF919F918F917F916F9176
:100A80005F914F913F912F910F900FBE0F901F904C
:100A900018951F920F920FB60F9211242F938F93D8
:100AA0009F93EF93FF93E0912701F09128018081BC
:100AB000E0912D01F0912E0182FD12C09081809174
:100AC00030018F5F8F7320913101821751F0E091D7
:100AD0003001F0E0E95EFE4F958F8093300101C058
:100AE0008081FF91EF919F918F912F910F900FBE79
:100AF0000F901F901895EF92FF920F931F93CF9333
:100B0000DF9310921A011092190188EE93E0A0E091
:100B1000B0E080931B0190931C01A0931D01B09342
:100B20001E018AE890E0909318018093170180E4F9
:100B300090E0909324018093230129E230E03093E8
:100B40002601209325012BE230E0309328012093E9
:100B500027012AE230E030932A0120932901909363
:100B60002C0180932B018CE290E090932E018093D6
:100B70002D01109230011092310110923201109229
:100B800033018091B80181110BC01092B501109210
:100B9000B4011092B7011092B60181E08093B801C0
:100BA00084EB91E09093C1018093C0011092C80141
:100BB0001092C90181E08093CA018091C401909193
:100BC000C501892B31F486EC91E09093C5018093A7
:100BD000C401E091C201F091C301F093CE01E09312
:100BE000CD01309721F086EC91E09683858386ECE9
:100BF00091E09093C3018093C2011092CC011092B6
:100C0000CB0186EA90E09093C7018093C6011092D1
:100C1000CF011092D0011092D1011092D2018CEA32
:100C200090E09093EA018093E90181E08093EB01E9
:100C30008FE78093EC018CE0E8E6F0E0A5EDB1E011
:100C400001900D928A95E1F788E0E0E6F0E0A1EEF0
:100C5000B1E001900D928A95E1F78CE090E00E945E
:100C600047079093D4018093D3014CE050E06FEF9D
:100C700070E00E946D0881EEE82E81E0F82EE70119
:100C800081E0C93ED80729F062E089910E942203E1
:100C9000F7CFC5EDD1E0EC16FD0659F08E0160E00E
:100CA00089910E94220360E0F80180810E94DB02AA
:100CB000F2CFDF91CF911F910F91FF90EF900895A8
:100CC000789483B7826083BF83B7816083BF89B71D
:100CD000816089BF1EBC8EB582608EBD8EB581607D
:100CE0008EBD8FB581608FBD85B5846085BD85B5AE
:100CF000806485BD329A319A309A379A1AB887E162
:100D0000E82E81E0F82E92E1892E9AE7992EA12C07
:100D1000B12C2EE7C22E20E0D22EC091C001D0917E
:100D2000C1018A819B81892B41F580910C019091B1
:100D30000D019B838A83892BB9F48AE090E00E949D
:100D40004707FC0190930D0180930C01F382E2822E
:100D5000F582E48286829782A086B186D182C082A3
:100D6000998388839B838A838A819B81DC01ED91AF
:100D7000FC910190F081E02D09950091C401109142
:100D8000C5010115110561F0D801ED91FC910480B8
:100D9000F581E02DC8010995F80105811681F1CF93
:100DA0008A819B81DC01ED91FC910280F381E02D31
:100DB00009958111F5CF0E94AF01AFCF86EA90E08F
:100DC0009093C7018093C6018091D3019091D40183
:100DD000009711F00E94DF078CE990E09093C70123
:100DE0008093C601E091CD01F091CE01309731F0B2
:100DF0008091CB019091CC01968385838091C20133
:100E00009091C301865C914021F4F093C301E0937B
:100E1000C201A091CB01B091CC01109721F018969E
:100E2000FC93EE9317978091C4019091C501865C65
:100E3000914021F4B093C501A093C4010895A1E2AB
:100E40001A2EAA1BBB1BFD010DC0AA1FBB1FEE1F44
:100E5000FF1FA217B307E407F50720F0A21BB30B8F
:100E6000E40BF50B661F771F881F991F1A9469F70B
:100E700060957095809590959B01AC01BD01CF0167
:100E80000895EE0FFF1F0590F491E02D09940F9344
:100E90001F93CF93DF938230910510F482E090E0AE
:100EA000E091EF01F091F00120E030E0A0E0B0E04F
:100EB000309719F1408151810281138148175907F8
:100EC000C8F08417950769F4109731F012960C93C7
:100ED000129713961C9327C00093EF011093F00113
:100EE00022C02115310519F04217530718F49A0151
:100EF000BD01EF01DF01F801DBCF21153105F9F06C
:100F0000281B390B2430310580F48A819B816115BF
:100F1000710521F0FB019383828304C09093F0015B
:100F20008093EF01FE01329644C0FE01E20FF31FF1
:100F30008193919322503109398328833AC02091BB
:100F4000ED013091EE01232B41F420917600309198
:100F500077003093EE012093ED01209174003091E1
:100F600075002115310541F42DB73EB74091780049
:100F700050917900241B350BE091ED01F091EE01C9
:100F8000E217F307A0F42E1B3F0B2817390778F060
:100F9000AC014E5F5F4F2417350748F04E0F5F1FBF
:100FA0005093EE014093ED018193919302C0E0E0F4
:100FB000F0E0CF01DF91CF911F910F910895CF9372
:100FC000DF93009709F481C0FC01329713821282EB
:100FD000A091EF01B091F001109781F4208131814F
:100FE000820F931F2091ED013091EE0128173907F0
:100FF00051F5F093EE01E093ED0167C0ED0120E0C3
:1010000030E0CE17DF0740F44A815B819E01411535
:101010005105F1F0EA01F5CFD383C28340815181BC
:10102000840F951FC817D90759F488819981840FB7
:10103000951F0296918380838A819B81938382830B
:101040002115310529F4F093F001E093EF013DC043
:10105000E901FB83EA8349915991C40FD51FEC172D
:10106000FD0761F480819181840F951F0296E9014B
:1010700099838883828193819B838A83E0E0F0E077
:1010800012968D919C911397009719F0FD01DC0148
:10109000F7CF8D919C9111979D012E5F3F4F820F4D
:1010A000931F2091ED013091EE012817390769F463
:1010B000309729F41092F0011092EF0102C01382D0
:1010C0001282B093EE01A093ED01DF91CF910895CC
:1010D00081E090E0F8940C947408DC0101C06D93F9
:1010E00041505040E0F7089510E0C0E7D0E004C060
:1010F000FE010E9441072196C137D107C9F7F89434
:02110000FFCF1F
:101102001B1A19181F1E1D1C0107020B030C040DCC
:10111200050E060A0000F101800000000000BD017A
:101122007B024A022502000000004101AC00D90006
:101132008D010A01E800FC0000000000D6049902BB
:10114200990200000000D6049902D2031925313D0C
:101152004955616D1A26323E4A56626E1B27333F4D
:101162004B57636F1C2834404C5864701D2935411D
:101172004D5965711E2A36424E5A66721F2B3743ED
:101182004F5B6773202C3844505C6874212D3945BD
:10119200515D6975222E3A46525E6A76232F3B478D
:0C11A200535F6B7724303C4854606C783D
:00000001FF
